{
  "contractName": "V2WICO",
  "abi": [
    {
      "inputs": [],
      "stateMutability": "nonpayable",
      "type": "constructor"
    },
    {
      "anonymous": false,
      "inputs": [
        {
          "indexed": false,
          "internalType": "address",
          "name": "seller",
          "type": "address"
        },
        {
          "indexed": false,
          "internalType": "address",
          "name": "buyer",
          "type": "address"
        },
        {
          "indexed": false,
          "internalType": "uint256",
          "name": "amount",
          "type": "uint256"
        }
      ],
      "name": "TOKENEXCAHNGED",
      "type": "event"
    },
    {
      "inputs": [
        {
          "internalType": "address",
          "name": "_token",
          "type": "address"
        }
      ],
      "name": "setToken",
      "outputs": [],
      "stateMutability": "nonpayable",
      "type": "function"
    },
    {
      "inputs": [],
      "name": "buyTokens",
      "outputs": [],
      "stateMutability": "payable",
      "type": "function",
      "payable": true
    }
  ],
  "bytecode": "0x608060405234801561001057600080fd5b5033600160006101000a81548173ffffffffffffffffffffffffffffffffffffffff021916908373ffffffffffffffffffffffffffffffffffffffff160217905550606460028190555061048d806100696000396000f3fe6080604052600436106100295760003560e01c8063144fa6d71461002e578063d0febe4c1461007f575b600080fd5b34801561003a57600080fd5b5061007d6004803603602081101561005157600080fd5b81019080803573ffffffffffffffffffffffffffffffffffffffff169060200190929190505050610089565b005b6100876100cc565b005b806000806101000a81548173ffffffffffffffffffffffffffffffffffffffff021916908373ffffffffffffffffffffffffffffffffffffffff16021790555050565b670de0b6b3a764000034101561014a576040517f08c379a00000000000000000000000000000000000000000000000000000000081526004018080602001828103825260158152602001807f6e6f7420656e6f7567682065746865722073656e74000000000000000000000081525060200191505060405180910390fd5b6000346002540290508060008054906101000a900473ffffffffffffffffffffffffffffffffffffffff1673ffffffffffffffffffffffffffffffffffffffff166370a08231600160009054906101000a900473ffffffffffffffffffffffffffffffffffffffff166040518263ffffffff1660e01b8152600401808273ffffffffffffffffffffffffffffffffffffffff16815260200191505060206040518083038186803b1580156101fd57600080fd5b505afa158015610211573d6000803e3d6000fd5b505050506040513d602081101561022757600080fd5b81019080805190602001909291905050501161028e576040517f08c379a00000000000000000000000000000000000000000000000000000000081526004018080602001828103825260248152602001806104346024913960400191505060405180910390fd5b60008054906101000a900473ffffffffffffffffffffffffffffffffffffffff1673ffffffffffffffffffffffffffffffffffffffff166323b872dd600160009054906101000a900473ffffffffffffffffffffffffffffffffffffffff1633846040518463ffffffff1660e01b8152600401808473ffffffffffffffffffffffffffffffffffffffff1681526020018373ffffffffffffffffffffffffffffffffffffffff1681526020018281526020019350505050602060405180830381600087803b15801561035f57600080fd5b505af1158015610373573d6000803e3d6000fd5b505050506040513d602081101561038957600080fd5b8101908080519060200190929190505050507f82f6bb1171bcd1267407ebbbc00f36fb7f8649c0eca236d15b723c4ab9c55a7c600160009054906101000a900473ffffffffffffffffffffffffffffffffffffffff163383604051808473ffffffffffffffffffffffffffffffffffffffff1681526020018373ffffffffffffffffffffffffffffffffffffffff168152602001828152602001935050505060405180910390a15056fe636f6e747261637420646f6573206e6f74206861766520656e6f75676820746f6b656e73a2646970667358221220833a279bd4b50c4bf1c629251997e97850d70b8e71b2a6650e81bbcb538ccc2e64736f6c634300060c0033",
  "immutableReferences": {},
  "source": "// SPDX-License-Identifier: MIT\r\npragma solidity 0.6.12;\r\n\r\nimport \"@openzeppelin/contracts/token/ERC20/IERC20.sol\";\r\n\r\ncontract V2WICO {\r\n    \r\n    IERC20 token;\r\n    \r\n    address owner;\r\n    uint256 oneEthToTokenRatio;\r\n\r\n    event TOKENEXCAHNGED(address seller, address buyer, uint256 amount);\r\n    \r\n    constructor() public {\r\n        owner = msg.sender;\r\n        oneEthToTokenRatio = 100;\r\n    }\r\n    \r\n    //here we set the token address to the token creatd in the token.sol contract\r\n    //then the token owner needs to approve the ICO contract to do the transaciton on behalf of token contract\r\n    function setToken(address _token) public {\r\n        token = IERC20(_token);\r\n    }\r\n    \r\n    function buyTokens() public payable {\r\n        require(msg.value >= 1 ether,\"not enough ether sent\");\r\n        uint256 count = (oneEthToTokenRatio * msg.value);\r\n        \r\n        require(token.balanceOf(owner) > count, \"contract does not have enough tokens\");\r\n        token.transferFrom(owner,msg.sender,count);    \r\n        emit TOKENEXCAHNGED(owner, msg.sender, count); \r\n\r\n    }\r\n}",
  "sourcePath": "/Users/amitpandey/Desktop/final/contracts/ICO.sol",
  "compiler": {
    "name": "solc",
    "version": "0.6.12+commit.27d51765.Emscripten.clang"
  },
  "schemaVersion": "3.3.3",
  "updatedAt": "2021-04-29T12:31:00.616Z",
  "networkType": "ethereum",
  "devdoc": {
    "kind": "dev",
    "methods": {},
    "version": 1
  },
  "userdoc": {
    "kind": "user",
    "methods": {},
    "version": 1
  }
}