{
  "contractName": "VineToWine",
  "abi": [
    {
      "inputs": [
        {
          "internalType": "address",
          "name": "_token_address",
          "type": "address"
        },
        {
          "internalType": "uint256",
          "name": "_staking_amount",
          "type": "uint256"
        },
        {
          "internalType": "address",
          "name": "_ICO_owner",
          "type": "address"
        }
      ],
      "stateMutability": "nonpayable",
      "type": "constructor"
    },
    {
      "anonymous": false,
      "inputs": [
        {
          "indexed": false,
          "internalType": "address",
          "name": "producer_address",
          "type": "address"
        },
        {
          "indexed": false,
          "internalType": "string",
          "name": "barrell_batch_number",
          "type": "string"
        }
      ],
      "name": "barrellDetails",
      "type": "event"
    },
    {
      "anonymous": false,
      "inputs": [
        {
          "indexed": false,
          "internalType": "address",
          "name": "packeraddress",
          "type": "address"
        },
        {
          "indexed": false,
          "internalType": "string",
          "name": "barrell_batch_number",
          "type": "string"
        }
      ],
      "name": "barrellReceived",
      "type": "event"
    },
    {
      "anonymous": false,
      "inputs": [
        {
          "indexed": false,
          "internalType": "address",
          "name": "user",
          "type": "address"
        },
        {
          "components": [
            {
              "internalType": "string",
              "name": "bottle_id",
              "type": "string"
            },
            {
              "components": [
                {
                  "internalType": "address",
                  "name": "farmer_ddress",
                  "type": "address"
                },
                {
                  "internalType": "string",
                  "name": "location_id",
                  "type": "string"
                },
                {
                  "internalType": "string",
                  "name": "vine_variety",
                  "type": "string"
                },
                {
                  "internalType": "uint256",
                  "name": "picking_timestamp",
                  "type": "uint256"
                },
                {
                  "internalType": "string",
                  "name": "batch_num",
                  "type": "string"
                },
                {
                  "internalType": "bool",
                  "name": "vine_picked",
                  "type": "bool"
                }
              ],
              "internalType": "struct VineToWine.vineyard",
              "name": "vineyard_details",
              "type": "tuple"
            },
            {
              "components": [
                {
                  "internalType": "string",
                  "name": "batch_num",
                  "type": "string"
                },
                {
                  "internalType": "address",
                  "name": "farm_address",
                  "type": "address"
                },
                {
                  "internalType": "uint256",
                  "name": "batch_rcvd_timestamp",
                  "type": "uint256"
                },
                {
                  "internalType": "uint256",
                  "name": "destemmer_timestamp",
                  "type": "uint256"
                },
                {
                  "internalType": "uint256",
                  "name": "crusher_timestamp",
                  "type": "uint256"
                },
                {
                  "internalType": "uint256",
                  "name": "chiller_timestamp",
                  "type": "uint256"
                },
                {
                  "internalType": "uint256",
                  "name": "presser_timestamp",
                  "type": "uint256"
                },
                {
                  "internalType": "uint256",
                  "name": "barrell_timestamp",
                  "type": "uint256"
                },
                {
                  "internalType": "string",
                  "name": "barrel_batch_number",
                  "type": "string"
                }
              ],
              "internalType": "struct VineToWine.producer",
              "name": "barrell_details",
              "type": "tuple"
            },
            {
              "components": [
                {
                  "internalType": "string",
                  "name": "barrel_batch_number",
                  "type": "string"
                },
                {
                  "internalType": "address",
                  "name": "producer_address",
                  "type": "address"
                },
                {
                  "internalType": "uint256",
                  "name": "received_timestamp",
                  "type": "uint256"
                },
                {
                  "internalType": "uint256",
                  "name": "bottled_timestamp",
                  "type": "uint256"
                }
              ],
              "internalType": "struct VineToWine.packer",
              "name": "packer_details",
              "type": "tuple"
            },
            {
              "internalType": "address[]",
              "name": "owners",
              "type": "address[]"
            }
          ],
          "indexed": false,
          "internalType": "struct VineToWine.bottleHistory",
          "name": "bottle_history_details",
          "type": "tuple"
        }
      ],
      "name": "bottle_history",
      "type": "event"
    },
    {
      "anonymous": false,
      "inputs": [
        {
          "indexed": false,
          "internalType": "address",
          "name": "packeraddress",
          "type": "address"
        },
        {
          "indexed": false,
          "internalType": "string",
          "name": "bottleId",
          "type": "string"
        },
        {
          "components": [
            {
              "internalType": "string",
              "name": "barrel_batch_number",
              "type": "string"
            },
            {
              "internalType": "address",
              "name": "producer_address",
              "type": "address"
            },
            {
              "internalType": "uint256",
              "name": "received_timestamp",
              "type": "uint256"
            },
            {
              "internalType": "uint256",
              "name": "bottled_timestamp",
              "type": "uint256"
            }
          ],
          "indexed": false,
          "internalType": "struct VineToWine.packer",
          "name": "packedbottle",
          "type": "tuple"
        }
      ],
      "name": "bottledEvent",
      "type": "event"
    },
    {
      "anonymous": false,
      "inputs": [
        {
          "indexed": false,
          "internalType": "address",
          "name": "entity",
          "type": "address"
        },
        {
          "indexed": false,
          "internalType": "string",
          "name": "name",
          "type": "string"
        },
        {
          "indexed": false,
          "internalType": "uint256",
          "name": "roleentity",
          "type": "uint256"
        }
      ],
      "name": "entityRegistered",
      "type": "event"
    },
    {
      "anonymous": false,
      "inputs": [
        {
          "components": [
            {
              "internalType": "string",
              "name": "batch_num",
              "type": "string"
            },
            {
              "internalType": "address",
              "name": "farm_address",
              "type": "address"
            },
            {
              "internalType": "uint256",
              "name": "batch_rcvd_timestamp",
              "type": "uint256"
            },
            {
              "internalType": "uint256",
              "name": "destemmer_timestamp",
              "type": "uint256"
            },
            {
              "internalType": "uint256",
              "name": "crusher_timestamp",
              "type": "uint256"
            },
            {
              "internalType": "uint256",
              "name": "chiller_timestamp",
              "type": "uint256"
            },
            {
              "internalType": "uint256",
              "name": "presser_timestamp",
              "type": "uint256"
            },
            {
              "internalType": "uint256",
              "name": "barrell_timestamp",
              "type": "uint256"
            },
            {
              "internalType": "string",
              "name": "barrel_batch_number",
              "type": "string"
            }
          ],
          "indexed": false,
          "internalType": "struct VineToWine.producer[]",
          "name": "",
          "type": "tuple[]"
        }
      ],
      "name": "produreDetails",
      "type": "event"
    },
    {
      "anonymous": false,
      "inputs": [
        {
          "indexed": false,
          "internalType": "address",
          "name": "producer_address",
          "type": "address"
        },
        {
          "components": [
            {
              "internalType": "string",
              "name": "batch_num",
              "type": "string"
            },
            {
              "internalType": "address",
              "name": "farm_address",
              "type": "address"
            },
            {
              "internalType": "uint256",
              "name": "batch_rcvd_timestamp",
              "type": "uint256"
            },
            {
              "internalType": "uint256",
              "name": "destemmer_timestamp",
              "type": "uint256"
            },
            {
              "internalType": "uint256",
              "name": "crusher_timestamp",
              "type": "uint256"
            },
            {
              "internalType": "uint256",
              "name": "chiller_timestamp",
              "type": "uint256"
            },
            {
              "internalType": "uint256",
              "name": "presser_timestamp",
              "type": "uint256"
            },
            {
              "internalType": "uint256",
              "name": "barrell_timestamp",
              "type": "uint256"
            },
            {
              "internalType": "string",
              "name": "barrel_batch_number",
              "type": "string"
            }
          ],
          "indexed": false,
          "internalType": "struct VineToWine.producer",
          "name": "p",
          "type": "tuple"
        }
      ],
      "name": "vineBatchReceived",
      "type": "event"
    },
    {
      "anonymous": false,
      "inputs": [
        {
          "indexed": false,
          "internalType": "address",
          "name": "farmer",
          "type": "address"
        },
        {
          "indexed": false,
          "internalType": "string",
          "name": "location",
          "type": "string"
        },
        {
          "indexed": false,
          "internalType": "string",
          "name": "vinevariety",
          "type": "string"
        }
      ],
      "name": "vineVarietyChanged",
      "type": "event"
    },
    {
      "anonymous": false,
      "inputs": [
        {
          "indexed": false,
          "internalType": "address",
          "name": "farmer",
          "type": "address"
        },
        {
          "indexed": false,
          "internalType": "string",
          "name": "location",
          "type": "string"
        },
        {
          "indexed": false,
          "internalType": "string",
          "name": "batch_num",
          "type": "string"
        }
      ],
      "name": "vineyardPicked",
      "type": "event"
    },
    {
      "anonymous": false,
      "inputs": [
        {
          "indexed": false,
          "internalType": "address",
          "name": "farmer",
          "type": "address"
        },
        {
          "indexed": false,
          "internalType": "string",
          "name": "location",
          "type": "string"
        },
        {
          "indexed": false,
          "internalType": "string",
          "name": "vinevariety",
          "type": "string"
        }
      ],
      "name": "vineyardRegistered",
      "type": "event"
    },
    {
      "inputs": [
        {
          "internalType": "uint256",
          "name": "",
          "type": "uint256"
        }
      ],
      "name": "consumer_array",
      "outputs": [
        {
          "internalType": "address",
          "name": "",
          "type": "address"
        }
      ],
      "stateMutability": "view",
      "type": "function",
      "constant": true
    },
    {
      "inputs": [
        {
          "internalType": "uint256",
          "name": "",
          "type": "uint256"
        }
      ],
      "name": "distributor_array",
      "outputs": [
        {
          "internalType": "address",
          "name": "",
          "type": "address"
        }
      ],
      "stateMutability": "view",
      "type": "function",
      "constant": true
    },
    {
      "inputs": [
        {
          "internalType": "uint256",
          "name": "",
          "type": "uint256"
        }
      ],
      "name": "farmer_array",
      "outputs": [
        {
          "internalType": "address",
          "name": "",
          "type": "address"
        }
      ],
      "stateMutability": "view",
      "type": "function",
      "constant": true
    },
    {
      "inputs": [
        {
          "internalType": "uint256",
          "name": "",
          "type": "uint256"
        }
      ],
      "name": "packer_array",
      "outputs": [
        {
          "internalType": "address",
          "name": "",
          "type": "address"
        }
      ],
      "stateMutability": "view",
      "type": "function",
      "constant": true
    },
    {
      "inputs": [
        {
          "internalType": "uint256",
          "name": "",
          "type": "uint256"
        }
      ],
      "name": "producer_array",
      "outputs": [
        {
          "internalType": "address",
          "name": "",
          "type": "address"
        }
      ],
      "stateMutability": "view",
      "type": "function",
      "constant": true
    },
    {
      "inputs": [
        {
          "internalType": "uint256",
          "name": "",
          "type": "uint256"
        }
      ],
      "name": "retailer_array",
      "outputs": [
        {
          "internalType": "address",
          "name": "",
          "type": "address"
        }
      ],
      "stateMutability": "view",
      "type": "function",
      "constant": true
    },
    {
      "inputs": [
        {
          "internalType": "string",
          "name": "_name",
          "type": "string"
        },
        {
          "internalType": "uint256",
          "name": "_role",
          "type": "uint256"
        }
      ],
      "name": "registerEntity",
      "outputs": [],
      "stateMutability": "payable",
      "type": "function",
      "payable": true
    },
    {
      "inputs": [
        {
          "internalType": "string",
          "name": "_locationid",
          "type": "string"
        },
        {
          "internalType": "string",
          "name": "_vinevariety",
          "type": "string"
        }
      ],
      "name": "registerVineryard",
      "outputs": [],
      "stateMutability": "nonpayable",
      "type": "function"
    },
    {
      "inputs": [
        {
          "internalType": "string",
          "name": "_locationid",
          "type": "string"
        },
        {
          "internalType": "string",
          "name": "_vinevariety",
          "type": "string"
        }
      ],
      "name": "updateVineVariety",
      "outputs": [],
      "stateMutability": "nonpayable",
      "type": "function"
    },
    {
      "inputs": [
        {
          "internalType": "string",
          "name": "_locationid",
          "type": "string"
        }
      ],
      "name": "updateVineyardPicking",
      "outputs": [],
      "stateMutability": "nonpayable",
      "type": "function"
    },
    {
      "inputs": [
        {
          "internalType": "string",
          "name": "_batch_num",
          "type": "string"
        },
        {
          "internalType": "address",
          "name": "_farm_address",
          "type": "address"
        }
      ],
      "name": "receiveVineBatch",
      "outputs": [],
      "stateMutability": "nonpayable",
      "type": "function"
    },
    {
      "inputs": [
        {
          "internalType": "string",
          "name": "_batch_num",
          "type": "string"
        }
      ],
      "name": "updateDestemming",
      "outputs": [],
      "stateMutability": "nonpayable",
      "type": "function"
    },
    {
      "inputs": [
        {
          "internalType": "string",
          "name": "_batch_num",
          "type": "string"
        }
      ],
      "name": "updateCrushing",
      "outputs": [],
      "stateMutability": "nonpayable",
      "type": "function"
    },
    {
      "inputs": [
        {
          "internalType": "string",
          "name": "_batch_num",
          "type": "string"
        }
      ],
      "name": "updateChilling",
      "outputs": [],
      "stateMutability": "nonpayable",
      "type": "function"
    },
    {
      "inputs": [
        {
          "internalType": "string",
          "name": "_batch_num",
          "type": "string"
        }
      ],
      "name": "updatePressing",
      "outputs": [],
      "stateMutability": "nonpayable",
      "type": "function"
    },
    {
      "inputs": [
        {
          "internalType": "string",
          "name": "_batch_num",
          "type": "string"
        }
      ],
      "name": "updateBarrell",
      "outputs": [],
      "stateMutability": "nonpayable",
      "type": "function"
    },
    {
      "inputs": [
        {
          "internalType": "string",
          "name": "_barrel_batch_number",
          "type": "string"
        },
        {
          "internalType": "address",
          "name": "_producer_address",
          "type": "address"
        }
      ],
      "name": "receiveBarrell",
      "outputs": [],
      "stateMutability": "nonpayable",
      "type": "function"
    },
    {
      "inputs": [
        {
          "internalType": "string",
          "name": "_bottle_id",
          "type": "string"
        },
        {
          "internalType": "string",
          "name": "_barrel_batch_number",
          "type": "string"
        }
      ],
      "name": "updateBottleId",
      "outputs": [],
      "stateMutability": "nonpayable",
      "type": "function"
    },
    {
      "inputs": [
        {
          "internalType": "string",
          "name": "_bottle_id",
          "type": "string"
        }
      ],
      "name": "changeOwner",
      "outputs": [],
      "stateMutability": "nonpayable",
      "type": "function"
    },
    {
      "inputs": [
        {
          "internalType": "string",
          "name": "_bottle_id",
          "type": "string"
        }
      ],
      "name": "getBottleHistory",
      "outputs": [],
      "stateMutability": "nonpayable",
      "type": "function"
    },
    {
      "inputs": [
        {
          "internalType": "address",
          "name": "_farmer",
          "type": "address"
        }
      ],
      "name": "getVineyardDetails",
      "outputs": [
        {
          "components": [
            {
              "internalType": "address",
              "name": "farmer_ddress",
              "type": "address"
            },
            {
              "internalType": "string",
              "name": "location_id",
              "type": "string"
            },
            {
              "internalType": "string",
              "name": "vine_variety",
              "type": "string"
            },
            {
              "internalType": "uint256",
              "name": "picking_timestamp",
              "type": "uint256"
            },
            {
              "internalType": "string",
              "name": "batch_num",
              "type": "string"
            },
            {
              "internalType": "bool",
              "name": "vine_picked",
              "type": "bool"
            }
          ],
          "internalType": "struct VineToWine.vineyard[]",
          "name": "",
          "type": "tuple[]"
        }
      ],
      "stateMutability": "view",
      "type": "function",
      "constant": true
    },
    {
      "inputs": [
        {
          "internalType": "address",
          "name": "_producer",
          "type": "address"
        }
      ],
      "name": "getProducerDetails",
      "outputs": [
        {
          "components": [
            {
              "internalType": "string",
              "name": "batch_num",
              "type": "string"
            },
            {
              "internalType": "address",
              "name": "farm_address",
              "type": "address"
            },
            {
              "internalType": "uint256",
              "name": "batch_rcvd_timestamp",
              "type": "uint256"
            },
            {
              "internalType": "uint256",
              "name": "destemmer_timestamp",
              "type": "uint256"
            },
            {
              "internalType": "uint256",
              "name": "crusher_timestamp",
              "type": "uint256"
            },
            {
              "internalType": "uint256",
              "name": "chiller_timestamp",
              "type": "uint256"
            },
            {
              "internalType": "uint256",
              "name": "presser_timestamp",
              "type": "uint256"
            },
            {
              "internalType": "uint256",
              "name": "barrell_timestamp",
              "type": "uint256"
            },
            {
              "internalType": "string",
              "name": "barrel_batch_number",
              "type": "string"
            }
          ],
          "internalType": "struct VineToWine.producer[]",
          "name": "",
          "type": "tuple[]"
        }
      ],
      "stateMutability": "nonpayable",
      "type": "function"
    }
  ],
  "bytecode": "0x60806040523480156200001157600080fd5b5060405162005ab038038062005ab0833981810160405281019062000037919062000138565b82600c60006101000a81548173ffffffffffffffffffffffffffffffffffffffff021916908373ffffffffffffffffffffffffffffffffffffffff16021790555033600d60006101000a81548173ffffffffffffffffffffffffffffffffffffffff021916908373ffffffffffffffffffffffffffffffffffffffff16021790555081600f8190555080600e60006101000a81548173ffffffffffffffffffffffffffffffffffffffff021916908373ffffffffffffffffffffffffffffffffffffffff16021790555050505062000200565b6000815190506200011b81620001cc565b92915050565b6000815190506200013281620001e6565b92915050565b6000806000606084860312156200014e57600080fd5b60006200015e868287016200010a565b9350506020620001718682870162000121565b925050604062000184868287016200010a565b9150509250925092565b60006200019b82620001a2565b9050919050565b600073ffffffffffffffffffffffffffffffffffffffff82169050919050565b6000819050919050565b620001d7816200018e565b8114620001e357600080fd5b50565b620001f181620001c2565b8114620001fd57600080fd5b50565b6158a080620002106000396000f3fe6080604052600436106101355760003560e01c806386dc9651116100ab578063c40bb9be1161006f578063c40bb9be14610421578063ccb0cf471461045e578063cd15bec514610487578063d5a37bba146104c4578063f580c7a614610501578063faec4db41461052a57610135565b806386dc96511461034057806398812dab146103695780639e63ee21146103a6578063bd3da1d5146103cf578063bdebc25a146103f857610135565b80635d882bd9116100fd5780635d882bd9146102365780635f770ffc1461025f57806363a6813d146102885780636e3f0118146102c55780637e9f9805146102ee5780637fc663981461031757610135565b80630594e35e1461013a5780630a3edda1146101775780631666825e146101b457806326872f3f146101dd57806356b98d831461021a575b600080fd5b34801561014657600080fd5b50610161600480360381019061015c919061462b565b610553565b60405161016e9190615496565b60405180910390f35b34801561018357600080fd5b5061019e600480360381019061019991906147d2565b61092b565b6040516101ab919061529a565b60405180910390f35b3480156101c057600080fd5b506101db60048036038101906101d6919061467d565b610967565b005b3480156101e957600080fd5b5061020460048036038101906101ff91906147d2565b610bf3565b604051610211919061529a565b60405180910390f35b610234600480360381019061022f919061477e565b610c2f565b005b34801561024257600080fd5b5061025d600480360381019061025891906146be565b6111ce565b005b34801561026b57600080fd5b5061028660048036038101906102819190614712565b6113c0565b005b34801561029457600080fd5b506102af60048036038101906102aa91906147d2565b6117fe565b6040516102bc919061529a565b60405180910390f35b3480156102d157600080fd5b506102ec60048036038101906102e7919061467d565b61183a565b005b3480156102fa57600080fd5b50610315600480360381019061031091906146be565b611bad565b005b34801561032357600080fd5b5061033e60048036038101906103399190614712565b611e17565b005b34801561034c57600080fd5b506103676004803603810190610362919061467d565b61209f565b005b34801561037557600080fd5b50610390600480360381019061038b919061462b565b61232b565b60405161039d9190615474565b60405180910390f35b3480156103b257600080fd5b506103cd60048036038101906103c8919061467d565b6127c2565b005b3480156103db57600080fd5b506103f660048036038101906103f1919061467d565b612a4e565b005b34801561040457600080fd5b5061041f600480360381019061041a919061467d565b612cda565b005b34801561042d57600080fd5b50610448600480360381019061044391906147d2565b6130b9565b604051610455919061529a565b60405180910390f35b34801561046a57600080fd5b5061048560048036038101906104809190614712565b6130f5565b005b34801561049357600080fd5b506104ae60048036038101906104a991906147d2565b61349a565b6040516104bb919061529a565b60405180910390f35b3480156104d057600080fd5b506104eb60048036038101906104e691906147d2565b6134d6565b6040516104f8919061529a565b60405180910390f35b34801561050d57600080fd5b506105286004803603810190610523919061467d565b613512565b005b34801561053657600080fd5b50610551600480360381019061054c919061467d565b613fa4565b005b606080600760008473ffffffffffffffffffffffffffffffffffffffff1673ffffffffffffffffffffffffffffffffffffffff1681526020019081526020016000208054905067ffffffffffffffff811180156105af57600080fd5b506040519080825280602002602001820160405280156105e957816020015b6105d66143b2565b8152602001906001900390816105ce5790505b50905060005b600760008573ffffffffffffffffffffffffffffffffffffffff1673ffffffffffffffffffffffffffffffffffffffff1681526020019081526020016000208054905081101561092157600760008573ffffffffffffffffffffffffffffffffffffffff1673ffffffffffffffffffffffffffffffffffffffff168152602001908152602001600020818154811061068357fe5b90600052602060002090600602016040518060c00160405290816000820160009054906101000a900473ffffffffffffffffffffffffffffffffffffffff1673ffffffffffffffffffffffffffffffffffffffff1673ffffffffffffffffffffffffffffffffffffffff168152602001600182018054600181600116156101000203166002900480601f01602080910402602001604051908101604052809291908181526020018280546001816001161561010002031660029004801561078b5780601f106107605761010080835404028352916020019161078b565b820191906000526020600020905b81548152906001019060200180831161076e57829003601f168201915b50505050508152602001600282018054600181600116156101000203166002900480601f01602080910402602001604051908101604052809291908181526020018280546001816001161561010002031660029004801561082d5780601f106108025761010080835404028352916020019161082d565b820191906000526020600020905b81548152906001019060200180831161081057829003601f168201915b5050505050815260200160038201548152602001600482018054600181600116156101000203166002900480601f0160208091040260200160405190810160405280929190818152602001828054600181600116156101000203166002900480156108d95780601f106108ae576101008083540402835291602001916108d9565b820191906000526020600020905b8154815290600101906020018083116108bc57829003601f168201915b505050505081526020016005820160009054906101000a900460ff16151515158152505082828151811061090957fe5b602002602001018190525080806001019150506105ef565b5080915050919050565b6004818154811061093857fe5b906000526020600020016000915054906101000a900473ffffffffffffffffffffffffffffffffffffffff1681565b6001600581111561097457fe5b6000803373ffffffffffffffffffffffffffffffffffffffff1673ffffffffffffffffffffffffffffffffffffffff16815260200190815260200160002060010154146109f6576040517f08c379a00000000000000000000000000000000000000000000000000000000081526004016109ed90615518565b60405180910390fd5b60005b600860003373ffffffffffffffffffffffffffffffffffffffff1673ffffffffffffffffffffffffffffffffffffffff16815260200190815260200160002080549050811015610bef5781604051602001610a549190615248565b60405160208183030381529060405280519060200120600860003373ffffffffffffffffffffffffffffffffffffffff1673ffffffffffffffffffffffffffffffffffffffff1681526020019081526020016000208281548110610ab457fe5b9060005260206000209060090201600001604051602001610ad59190615283565b604051602081830303815290604052805190602001201415610be25742600860003373ffffffffffffffffffffffffffffffffffffffff1673ffffffffffffffffffffffffffffffffffffffff1681526020019081526020016000208281548110610b3c57fe5b9060005260206000209060090201600401819055507fc841902cf077bf5acef58a43c0909073e3344d65f3ee99b6aef6599c205af9c133600860003373ffffffffffffffffffffffffffffffffffffffff1673ffffffffffffffffffffffffffffffffffffffff1681526020019081526020016000208381548110610bbd57fe5b9060005260206000209060090201604051610bd9929190615444565b60405180910390a15b80806001019150506109f9565b5050565b60028181548110610c0057fe5b906000526020600020016000915054906101000a900473ffffffffffffffffffffffffffffffffffffffff1681565b8060006005811115610c3d57fe5b1480610c5457508060016005811115610c5257fe5b145b80610c6a57508060026005811115610c6857fe5b145b80610c7f575080600580811115610c7d57fe5b145b80610c9557508060036005811115610c9357fe5b145b80610cab57508060046005811115610ca957fe5b145b610cea576040517f08c379a0000000000000000000000000000000000000000000000000000000008152600401610ce1906154b8565b60405180910390fd5b8060006005811115610cf857fe5b1480610d0f57508060016005811115610d0d57fe5b145b80610d2557508060026005811115610d2357fe5b145b80610d3b57508060036005811115610d3957fe5b145b80610d5157508060046005811115610d4f57fe5b145b15610e3757600c60009054906101000a900473ffffffffffffffffffffffffffffffffffffffff1673ffffffffffffffffffffffffffffffffffffffff166323b872dd33600e60009054906101000a900473ffffffffffffffffffffffffffffffffffffffff16670de0b6b3a7640000600f54026040518463ffffffff1660e01b8152600401610de3939291906152b5565b602060405180830381600087803b158015610dfd57600080fd5b505af1158015610e11573d6000803e3d6000fd5b505050506040513d601f19601f82011682018060405250810190610e359190614654565b505b610e3f614400565b6040518060400160405280848152602001838152509050806000803373ffffffffffffffffffffffffffffffffffffffff1673ffffffffffffffffffffffffffffffffffffffff1681526020019081526020016000206000820151816000019080519060200190610eb192919061441a565b50602082015181600101559050508160006005811115610ecd57fe5b1415610f37576001339080600181540180825580915050600190039060005260206000200160009091909190916101000a81548173ffffffffffffffffffffffffffffffffffffffff021916908373ffffffffffffffffffffffffffffffffffffffff1602179055505b8160016005811115610f4557fe5b1415610faf576002339080600181540180825580915050600190039060005260206000200160009091909190916101000a81548173ffffffffffffffffffffffffffffffffffffffff021916908373ffffffffffffffffffffffffffffffffffffffff1602179055505b8160026005811115610fbd57fe5b1415611027576003339080600181540180825580915050600190039060005260206000200160009091909190916101000a81548173ffffffffffffffffffffffffffffffffffffffff021916908373ffffffffffffffffffffffffffffffffffffffff1602179055505b816003600581111561103557fe5b141561109f576004339080600181540180825580915050600190039060005260206000200160009091909190916101000a81548173ffffffffffffffffffffffffffffffffffffffff021916908373ffffffffffffffffffffffffffffffffffffffff1602179055505b81600460058111156110ad57fe5b1415611117576005339080600181540180825580915050600190039060005260206000200160009091909190916101000a81548173ffffffffffffffffffffffffffffffffffffffff021916908373ffffffffffffffffffffffffffffffffffffffff1602179055505b8160058081111561112457fe5b141561118e576006339080600181540180825580915050600190039060005260206000200160009091909190916101000a81548173ffffffffffffffffffffffffffffffffffffffff021916908373ffffffffffffffffffffffffffffffffffffffff1602179055505b7fce0b0f21a64bdab43c633e1a28a8af35021c129e6979313427007388757337093384846040516111c1939291906153a6565b60405180910390a1505050565b600260058111156111db57fe5b6000803373ffffffffffffffffffffffffffffffffffffffff1673ffffffffffffffffffffffffffffffffffffffff168152602001908152602001600020600101541461125d576040517f08c379a000000000000000000000000000000000000000000000000000000000815260040161125490615538565b60405180910390fd5b61126561449a565b60405180608001604052808481526020018373ffffffffffffffffffffffffffffffffffffffff16815260200142815260200160008152509050600960003373ffffffffffffffffffffffffffffffffffffffff1673ffffffffffffffffffffffffffffffffffffffff168152602001908152602001600020819080600181540180825580915050600190039060005260206000209060040201600090919091909150600082015181600001908051906020019061132492919061441a565b5060208201518160010160006101000a81548173ffffffffffffffffffffffffffffffffffffffff021916908373ffffffffffffffffffffffffffffffffffffffff160217905550604082015181600201556060820151816003015550507f37fe80f8b6c102cd665631608177fb3f8c3a012199f4b4862e3ecb77de17b34d33846040516113b39291906152ec565b60405180910390a1505050565b600260058111156113cd57fe5b6000803373ffffffffffffffffffffffffffffffffffffffff1673ffffffffffffffffffffffffffffffffffffffff168152602001908152602001600020600101541461144f576040517f08c379a000000000000000000000000000000000000000000000000000000000815260040161144690615538565b60405180910390fd5b61145761449a565b60405180608001604052808381526020013373ffffffffffffffffffffffffffffffffffffffff168152602001600081526020016000815250905060005b600960003373ffffffffffffffffffffffffffffffffffffffff1673ffffffffffffffffffffffffffffffffffffffff168152602001908152602001600020805490508110156117bd57826040516020016114f09190615248565b60405160208183030381529060405280519060200120600960003373ffffffffffffffffffffffffffffffffffffffff1673ffffffffffffffffffffffffffffffffffffffff168152602001908152602001600020828154811061155057fe5b90600052602060002090600402016000016040516020016115719190615283565b6040516020818303038152906040528051906020012014156117b0576000429050600960003373ffffffffffffffffffffffffffffffffffffffff1673ffffffffffffffffffffffffffffffffffffffff16815260200190815260200160002082815481106115dc57fe5b906000526020600020906004020160010160009054906101000a900473ffffffffffffffffffffffffffffffffffffffff16836020019073ffffffffffffffffffffffffffffffffffffffff16908173ffffffffffffffffffffffffffffffffffffffff1681525050600960003373ffffffffffffffffffffffffffffffffffffffff1673ffffffffffffffffffffffffffffffffffffffff168152602001908152602001600020828154811061168f57fe5b9060005260206000209060040201600201548360400181815250508083606001818152505082600a866040516116c59190615248565b908152602001604051809103902060008201518160000190805190602001906116ef92919061441a565b5060208201518160010160006101000a81548173ffffffffffffffffffffffffffffffffffffffff021916908373ffffffffffffffffffffffffffffffffffffffff160217905550604082015181600201556060820151816003015590505080600960003373ffffffffffffffffffffffffffffffffffffffff1673ffffffffffffffffffffffffffffffffffffffff168152602001908152602001600020838154811061179957fe5b906000526020600020906004020160030181905550505b8080600101915050611495565b507f6704462068f749e3a642715d4553528968f413bba05c96c1f0a123d499af7c9f3384836040516117f193929190615361565b60405180910390a1505050565b6005818154811061180b57fe5b906000526020600020016000915054906101000a900473ffffffffffffffffffffffffffffffffffffffff1681565b6000600581111561184757fe5b6000803373ffffffffffffffffffffffffffffffffffffffff1673ffffffffffffffffffffffffffffffffffffffff16815260200190815260200160002060010154146118c9576040517f08c379a00000000000000000000000000000000000000000000000000000000081526004016118c090615578565b60405180910390fd5b600042905060005b600760003373ffffffffffffffffffffffffffffffffffffffff1673ffffffffffffffffffffffffffffffffffffffff16815260200190815260200160002080549050811015611b44578260405160200161192c9190615248565b60405160208183030381529060405280519060200120600760003373ffffffffffffffffffffffffffffffffffffffff1673ffffffffffffffffffffffffffffffffffffffff168152602001908152602001600020828154811061198c57fe5b90600052602060002090600602016001016040516020016119ad9190615283565b604051602081830303815290604052805190602001201415611b375781600760003373ffffffffffffffffffffffffffffffffffffffff1673ffffffffffffffffffffffffffffffffffffffff1681526020019081526020016000208281548110611a1457fe5b9060005260206000209060060201600301819055506001600760003373ffffffffffffffffffffffffffffffffffffffff1673ffffffffffffffffffffffffffffffffffffffff1681526020019081526020016000208281548110611a7557fe5b906000526020600020906006020160050160006101000a81548160ff02191690831515021790555082611aa783614267565b604051602001611ab892919061525f565b604051602081830303815290604052600760003373ffffffffffffffffffffffffffffffffffffffff1673ffffffffffffffffffffffffffffffffffffffff1681526020019081526020016000208281548110611b1157fe5b90600052602060002090600602016004019080519060200190611b3592919061441a565b505b80806001019150506118d1565b507f3480f6781d3c23f8c1dbbff6da22b0e4389a6cfd8a7fbbc10efc719e7b0a6496338384611b7285614267565b604051602001611b8392919061525f565b604051602081830303815290604052604051611ba19392919061531c565b60405180910390a15050565b60016005811115611bba57fe5b6000803373ffffffffffffffffffffffffffffffffffffffff1673ffffffffffffffffffffffffffffffffffffffff1681526020019081526020016000206001015414611c3c576040517f08c379a0000000000000000000000000000000000000000000000000000000008152600401611c3390615518565b60405180910390fd5b611c446144d8565b6040518061012001604052808481526020018373ffffffffffffffffffffffffffffffffffffffff1681526020014281526020016000815260200160008152602001600081526020016000815260200160008152602001604051806020016040528060008152508152509050600860003373ffffffffffffffffffffffffffffffffffffffff1673ffffffffffffffffffffffffffffffffffffffff1681526020019081526020016000208190806001815401808255809150506001900390600052602060002090600902016000909190919091506000820151816000019080519060200190611d3592919061441a565b5060208201518160010160006101000a81548173ffffffffffffffffffffffffffffffffffffffff021916908373ffffffffffffffffffffffffffffffffffffffff16021790555060408201518160020155606082015181600301556080820151816004015560a0820151816005015560c0820151816006015560e08201518160070155610100820151816008019080519060200190611dd692919061441a565b5050507fc841902cf077bf5acef58a43c0909073e3344d65f3ee99b6aef6599c205af9c13382604051611e0a929190615414565b60405180910390a1505050565b60006005811115611e2457fe5b6000803373ffffffffffffffffffffffffffffffffffffffff1673ffffffffffffffffffffffffffffffffffffffff1681526020019081526020016000206001015414611ea6576040517f08c379a0000000000000000000000000000000000000000000000000000000008152600401611e9d90615578565b60405180910390fd5b611eae6143b2565b6040518060c001604052803373ffffffffffffffffffffffffffffffffffffffff168152602001848152602001838152602001600081526020016040518060400160405280600181526020017f20000000000000000000000000000000000000000000000000000000000000008152508152602001600015158152509050600760003373ffffffffffffffffffffffffffffffffffffffff1673ffffffffffffffffffffffffffffffffffffffff16815260200190815260200160002081908060018154018082558091505060019003906000526020600020906006020160009091909190915060008201518160000160006101000a81548173ffffffffffffffffffffffffffffffffffffffff021916908373ffffffffffffffffffffffffffffffffffffffff1602179055506020820151816001019080519060200190611ff892919061441a565b50604082015181600201908051906020019061201592919061441a565b5060608201518160030155608082015181600401908051906020019061203c92919061441a565b5060a08201518160050160006101000a81548160ff02191690831515021790555050507f9e5eeab1610f0f777239d871cea6dc223c10ee2fe98785fd0887009452a112a33384846040516120929392919061531c565b60405180910390a1505050565b600160058111156120ac57fe5b6000803373ffffffffffffffffffffffffffffffffffffffff1673ffffffffffffffffffffffffffffffffffffffff168152602001908152602001600020600101541461212e576040517f08c379a000000000000000000000000000000000000000000000000000000000815260040161212590615518565b60405180910390fd5b60005b600860003373ffffffffffffffffffffffffffffffffffffffff1673ffffffffffffffffffffffffffffffffffffffff16815260200190815260200160002080549050811015612327578160405160200161218c9190615248565b60405160208183030381529060405280519060200120600860003373ffffffffffffffffffffffffffffffffffffffff1673ffffffffffffffffffffffffffffffffffffffff16815260200190815260200160002082815481106121ec57fe5b906000526020600020906009020160000160405160200161220d9190615283565b60405160208183030381529060405280519060200120141561231a5742600860003373ffffffffffffffffffffffffffffffffffffffff1673ffffffffffffffffffffffffffffffffffffffff168152602001908152602001600020828154811061227457fe5b9060005260206000209060090201600301819055507fc841902cf077bf5acef58a43c0909073e3344d65f3ee99b6aef6599c205af9c133600860003373ffffffffffffffffffffffffffffffffffffffff1673ffffffffffffffffffffffffffffffffffffffff16815260200190815260200160002083815481106122f557fe5b9060005260206000209060090201604051612311929190615444565b60405180910390a15b8080600101915050612131565b5050565b60606001600581111561233a57fe5b6000808473ffffffffffffffffffffffffffffffffffffffff1673ffffffffffffffffffffffffffffffffffffffff16815260200190815260200160002060010154146123bc576040517f08c379a00000000000000000000000000000000000000000000000000000000081526004016123b3906154f8565b60405180910390fd5b6000600860008473ffffffffffffffffffffffffffffffffffffffff1673ffffffffffffffffffffffffffffffffffffffff1681526020019081526020016000208054905011612441576040517f08c379a000000000000000000000000000000000000000000000000000000000815260040161243890615558565b60405180910390fd5b6060600860008473ffffffffffffffffffffffffffffffffffffffff1673ffffffffffffffffffffffffffffffffffffffff1681526020019081526020016000208054905067ffffffffffffffff8111801561249c57600080fd5b506040519080825280602002602001820160405280156124d657816020015b6124c36144d8565b8152602001906001900390816124bb5790505b50905060005b600860008573ffffffffffffffffffffffffffffffffffffffff1673ffffffffffffffffffffffffffffffffffffffff1681526020019081526020016000208054905081101561278457600860008573ffffffffffffffffffffffffffffffffffffffff1673ffffffffffffffffffffffffffffffffffffffff168152602001908152602001600020818154811061257057fe5b906000526020600020906009020160405180610120016040529081600082018054600181600116156101000203166002900480601f0160208091040260200160405190810160405280929190818152602001828054600181600116156101000203166002900480156126235780601f106125f857610100808354040283529160200191612623565b820191906000526020600020905b81548152906001019060200180831161260657829003601f168201915b505050505081526020016001820160009054906101000a900473ffffffffffffffffffffffffffffffffffffffff1673ffffffffffffffffffffffffffffffffffffffff1673ffffffffffffffffffffffffffffffffffffffff168152602001600282015481526020016003820154815260200160048201548152602001600582015481526020016006820154815260200160078201548152602001600882018054600181600116156101000203166002900480601f0160208091040260200160405190810160405280929190818152602001828054600181600116156101000203166002900480156127575780601f1061272c57610100808354040283529160200191612757565b820191906000526020600020905b81548152906001019060200180831161273a57829003601f168201915b50505050508152505082828151811061276c57fe5b602002602001018190525080806001019150506124dc565b507f73f25b81ae0fa616f462f5d6d9bf7a1ff415dd7c3b99d8f6ba02113e4bf4aed8816040516127b49190615474565b60405180910390a150919050565b600160058111156127cf57fe5b6000803373ffffffffffffffffffffffffffffffffffffffff1673ffffffffffffffffffffffffffffffffffffffff1681526020019081526020016000206001015414612851576040517f08c379a000000000000000000000000000000000000000000000000000000000815260040161284890615518565b60405180910390fd5b60005b600860003373ffffffffffffffffffffffffffffffffffffffff1673ffffffffffffffffffffffffffffffffffffffff16815260200190815260200160002080549050811015612a4a57816040516020016128af9190615248565b60405160208183030381529060405280519060200120600860003373ffffffffffffffffffffffffffffffffffffffff1673ffffffffffffffffffffffffffffffffffffffff168152602001908152602001600020828154811061290f57fe5b90600052602060002090600902016000016040516020016129309190615283565b604051602081830303815290604052805190602001201415612a3d5742600860003373ffffffffffffffffffffffffffffffffffffffff1673ffffffffffffffffffffffffffffffffffffffff168152602001908152602001600020828154811061299757fe5b9060005260206000209060090201600601819055507fc841902cf077bf5acef58a43c0909073e3344d65f3ee99b6aef6599c205af9c133600860003373ffffffffffffffffffffffffffffffffffffffff1673ffffffffffffffffffffffffffffffffffffffff1681526020019081526020016000208381548110612a1857fe5b9060005260206000209060090201604051612a34929190615444565b60405180910390a15b8080600101915050612854565b5050565b60016005811115612a5b57fe5b6000803373ffffffffffffffffffffffffffffffffffffffff1673ffffffffffffffffffffffffffffffffffffffff1681526020019081526020016000206001015414612add576040517f08c379a0000000000000000000000000000000000000000000000000000000008152600401612ad490615518565b60405180910390fd5b60005b600860003373ffffffffffffffffffffffffffffffffffffffff1673ffffffffffffffffffffffffffffffffffffffff16815260200190815260200160002080549050811015612cd65781604051602001612b3b9190615248565b60405160208183030381529060405280519060200120600860003373ffffffffffffffffffffffffffffffffffffffff1673ffffffffffffffffffffffffffffffffffffffff1681526020019081526020016000208281548110612b9b57fe5b9060005260206000209060090201600001604051602001612bbc9190615283565b604051602081830303815290604052805190602001201415612cc95742600860003373ffffffffffffffffffffffffffffffffffffffff1673ffffffffffffffffffffffffffffffffffffffff1681526020019081526020016000208281548110612c2357fe5b9060005260206000209060090201600501819055507fc841902cf077bf5acef58a43c0909073e3344d65f3ee99b6aef6599c205af9c133600860003373ffffffffffffffffffffffffffffffffffffffff1673ffffffffffffffffffffffffffffffffffffffff1681526020019081526020016000208381548110612ca457fe5b9060005260206000209060090201604051612cc0929190615444565b60405180910390a15b8080600101915050612ae0565b5050565b60016005811115612ce757fe5b6000803373ffffffffffffffffffffffffffffffffffffffff1673ffffffffffffffffffffffffffffffffffffffff1681526020019081526020016000206001015414612d69576040517f08c379a0000000000000000000000000000000000000000000000000000000008152600401612d6090615518565b60405180910390fd5b606060405180602001604052806000815250905060005b600860003373ffffffffffffffffffffffffffffffffffffffff1673ffffffffffffffffffffffffffffffffffffffff1681526020019081526020016000208054905081101561307b5782604051602001612ddb9190615248565b60405160208183030381529060405280519060200120600860003373ffffffffffffffffffffffffffffffffffffffff1673ffffffffffffffffffffffffffffffffffffffff1681526020019081526020016000208281548110612e3b57fe5b9060005260206000209060090201600001604051602001612e5c9190615283565b60405160208183030381529060405280519060200120141561306e57600042905080600860003373ffffffffffffffffffffffffffffffffffffffff1673ffffffffffffffffffffffffffffffffffffffff1681526020019081526020016000208381548110612ec857fe5b90600052602060002090600902016007018190555083612ee782614267565b604051602001612ef892919061525f565b604051602081830303815290604052600860003373ffffffffffffffffffffffffffffffffffffffff1673ffffffffffffffffffffffffffffffffffffffff1681526020019081526020016000208381548110612f5157fe5b90600052602060002090600902016008019080519060200190612f7592919061441a565b50600860003373ffffffffffffffffffffffffffffffffffffffff1673ffffffffffffffffffffffffffffffffffffffff1681526020019081526020016000208281548110612fc057fe5b90600052602060002090600902016008018054600181600116156101000203166002900480601f0160208091040260200160405190810160405280929190818152602001828054600181600116156101000203166002900480156130655780601f1061303a57610100808354040283529160200191613065565b820191906000526020600020905b81548152906001019060200180831161304857829003601f168201915b50505050509250505b8080600101915050612d80565b507fd7ca039bc651bff1f7e778b99bc089b8f26480432b1952ef806537f7a96d472133826040516130ad9291906152ec565b60405180910390a15050565b600681815481106130c657fe5b906000526020600020016000915054906101000a900473ffffffffffffffffffffffffffffffffffffffff1681565b6000600581111561310257fe5b6000803373ffffffffffffffffffffffffffffffffffffffff1673ffffffffffffffffffffffffffffffffffffffff1681526020019081526020016000206001015414613184576040517f08c379a000000000000000000000000000000000000000000000000000000000815260040161317b90615578565b60405180910390fd5b600042905060005b600760003373ffffffffffffffffffffffffffffffffffffffff1673ffffffffffffffffffffffffffffffffffffffff1681526020019081526020016000208054905081101561345957836040516020016131e79190615248565b60405160208183030381529060405280519060200120600760003373ffffffffffffffffffffffffffffffffffffffff1673ffffffffffffffffffffffffffffffffffffffff168152602001908152602001600020828154811061324757fe5b90600052602060002090600602016001016040516020016132689190615283565b60405160208183030381529060405280519060200120141561344c5782600760003373ffffffffffffffffffffffffffffffffffffffff1673ffffffffffffffffffffffffffffffffffffffff16815260200190815260200160002082815481106132cf57fe5b906000526020600020906006020160020190805190602001906132f392919061441a565b5081600760003373ffffffffffffffffffffffffffffffffffffffff1673ffffffffffffffffffffffffffffffffffffffff168152602001908152602001600020828154811061333f57fe5b9060005260206000209060060201600301819055506000600760003373ffffffffffffffffffffffffffffffffffffffff1673ffffffffffffffffffffffffffffffffffffffff16815260200190815260200160002082815481106133a057fe5b906000526020600020906006020160050160006101000a81548160ff02191690831515021790555060405180602001604052806000815250600760003373ffffffffffffffffffffffffffffffffffffffff1673ffffffffffffffffffffffffffffffffffffffff168152602001908152602001600020828154811061342257fe5b9060005260206000209060060201600401908051906020019061344692919061441a565b50613459565b808060010191505061318c565b507f8508f48b82275d6a824219ced0d2f93ac7c81ca982641f4368982c97aadfce9b33848460405161348d9392919061531c565b60405180910390a1505050565b600381815481106134a757fe5b906000526020600020016000915054906101000a900473ffffffffffffffffffffffffffffffffffffffff1681565b600181815481106134e357fe5b906000526020600020016000915054906101000a900473ffffffffffffffffffffffffffffffffffffffff1681565b61351a61449a565b600a8260405161352a9190615248565b9081526020016040518091039020604051806080016040529081600082018054600181600116156101000203166002900480601f0160208091040260200160405190810160405280929190818152602001828054600181600116156101000203166002900480156135dc5780601f106135b1576101008083540402835291602001916135dc565b820191906000526020600020905b8154815290600101906020018083116135bf57829003601f168201915b505050505081526020016001820160009054906101000a900473ffffffffffffffffffffffffffffffffffffffff1673ffffffffffffffffffffffffffffffffffffffff1673ffffffffffffffffffffffffffffffffffffffff16815260200160028201548152602001600382015481525050905060608160000151905060008260200151905061366b6144d8565b6040518061012001604052806040518060200160405280600081525081526020018373ffffffffffffffffffffffffffffffffffffffff16815260200160008152602001600081526020016000815260200160008152602001600081526020016000815260200160405180602001604052806000815250815250905060005b600860008473ffffffffffffffffffffffffffffffffffffffff1673ffffffffffffffffffffffffffffffffffffffff16815260200190815260200160002080549050811015613a2c57836040516020016137459190615248565b60405160208183030381529060405280519060200120600860008573ffffffffffffffffffffffffffffffffffffffff1673ffffffffffffffffffffffffffffffffffffffff16815260200190815260200160002082815481106137a557fe5b90600052602060002090600902016008016040516020016137c69190615283565b604051602081830303815290604052805190602001201415613a1f57600860008473ffffffffffffffffffffffffffffffffffffffff1673ffffffffffffffffffffffffffffffffffffffff168152602001908152602001600020818154811061382c57fe5b906000526020600020906009020160405180610120016040529081600082018054600181600116156101000203166002900480601f0160208091040260200160405190810160405280929190818152602001828054600181600116156101000203166002900480156138df5780601f106138b4576101008083540402835291602001916138df565b820191906000526020600020905b8154815290600101906020018083116138c257829003601f168201915b505050505081526020016001820160009054906101000a900473ffffffffffffffffffffffffffffffffffffffff1673ffffffffffffffffffffffffffffffffffffffff1673ffffffffffffffffffffffffffffffffffffffff168152602001600282015481526020016003820154815260200160048201548152602001600582015481526020016006820154815260200160078201548152602001600882018054600181600116156101000203166002900480601f016020809104026020016040519081016040528092919081815260200182805460018160011615610100020316600290048015613a135780601f106139e857610100808354040283529160200191613a13565b820191906000526020600020905b8154815290600101906020018083116139f657829003601f168201915b50505050508152505091505b80806001019150506136ea565b50600081602001519050606082600001519050613a476143b2565b6040518060c001604052808473ffffffffffffffffffffffffffffffffffffffff1681526020016040518060200160405280600081525081526020016040518060200160405280600081525081526020016000815260200160405180602001604052806000815250815260200160001515815250905060005b600760008573ffffffffffffffffffffffffffffffffffffffff1673ffffffffffffffffffffffffffffffffffffffff16815260200190815260200160002080549050811015613e8c5782604051602001613b1b9190615248565b60405160208183030381529060405280519060200120600760008673ffffffffffffffffffffffffffffffffffffffff1673ffffffffffffffffffffffffffffffffffffffff1681526020019081526020016000208281548110613b7b57fe5b9060005260206000209060060201600401604051602001613b9c9190615283565b604051602081830303815290604052805190602001201415613e7f57600760008573ffffffffffffffffffffffffffffffffffffffff1673ffffffffffffffffffffffffffffffffffffffff1681526020019081526020016000208181548110613c0257fe5b90600052602060002090600602016040518060c00160405290816000820160009054906101000a900473ffffffffffffffffffffffffffffffffffffffff1673ffffffffffffffffffffffffffffffffffffffff1673ffffffffffffffffffffffffffffffffffffffff168152602001600182018054600181600116156101000203166002900480601f016020809104026020016040519081016040528092919081815260200182805460018160011615610100020316600290048015613d0a5780601f10613cdf57610100808354040283529160200191613d0a565b820191906000526020600020905b815481529060010190602001808311613ced57829003601f168201915b50505050508152602001600282018054600181600116156101000203166002900480601f016020809104026020016040519081016040528092919081815260200182805460018160011615610100020316600290048015613dac5780601f10613d8157610100808354040283529160200191613dac565b820191906000526020600020905b815481529060010190602001808311613d8f57829003601f168201915b5050505050815260200160038201548152602001600482018054600181600116156101000203166002900480601f016020809104026020016040519081016040528092919081815260200182805460018160011615610100020316600290048015613e585780601f10613e2d57610100808354040283529160200191613e58565b820191906000526020600020905b815481529060010190602001808311613e3b57829003601f168201915b505050505081526020016005820160009054906101000a900460ff16151515158152505091505b8080600101915050613ac0565b50613e9561453a565b6040518060a001604052808a8152602001838152602001868152602001898152602001600b8b604051613ec89190615248565b9081526020016040518091039020805480602002602001604051908101604052809291908181526020018280548015613f5657602002820191906000526020600020905b8160009054906101000a900473ffffffffffffffffffffffffffffffffffffffff1673ffffffffffffffffffffffffffffffffffffffff1681526020019060010190808311613f0c575b505050505081525090507f81dfc33ccf7d7d70443820c725ecef13b36242355082fc595596a5303de6d09b3382604051613f919291906153e4565b60405180910390a1505050505050505050565b60006005811115613fb157fe5b6000803373ffffffffffffffffffffffffffffffffffffffff1673ffffffffffffffffffffffffffffffffffffffff16815260200190815260200160002060010154148061404b57506001600581111561400757fe5b6000803373ffffffffffffffffffffffffffffffffffffffff1673ffffffffffffffffffffffffffffffffffffffff16815260200190815260200160002060010154145b806140a257506002600581111561405e57fe5b6000803373ffffffffffffffffffffffffffffffffffffffff1673ffffffffffffffffffffffffffffffffffffffff16815260200190815260200160002060010154145b806140f95750600360058111156140b557fe5b6000803373ffffffffffffffffffffffffffffffffffffffff1673ffffffffffffffffffffffffffffffffffffffff16815260200190815260200160002060010154145b8061415057506004600581111561410c57fe5b6000803373ffffffffffffffffffffffffffffffffffffffff1673ffffffffffffffffffffffffffffffffffffffff16815260200190815260200160002060010154145b806141a6575060058081111561416257fe5b6000803373ffffffffffffffffffffffffffffffffffffffff1673ffffffffffffffffffffffffffffffffffffffff16815260200190815260200160002060010154145b6141e5576040517f08c379a00000000000000000000000000000000000000000000000000000000081526004016141dc906154d8565b60405180910390fd5b600b816040516141f59190615248565b9081526020016040518091039020339080600181540180825580915050600190039060005260206000200160009091909190916101000a81548173ffffffffffffffffffffffffffffffffffffffff021916908373ffffffffffffffffffffffffffffffffffffffff16021790555050565b6060600082905060008114156142b5576040518060400160405280600181526020017f30000000000000000000000000000000000000000000000000000000000000008152509150506143ad565b600081905060005b600082146142df578080600101915050600a82816142d757fe5b0491506142bd565b60608167ffffffffffffffff811180156142f857600080fd5b506040519080825280601f01601f19166020018201604052801561432b5781602001600182028036833780820191505090505b50905060006001830390505b600085146143a457600a858161434957fe5b0660300160f81b8282806001900393508151811061436357fe5b60200101907effffffffffffffffffffffffffffffffffffffffffffffffffffffffffffff1916908160001a905350600a858161439c57fe5b049450614337565b81955050505050505b919050565b6040518060c00160405280600073ffffffffffffffffffffffffffffffffffffffff168152602001606081526020016060815260200160008152602001606081526020016000151581525090565b604051806040016040528060608152602001600081525090565b828054600181600116156101000203166002900490600052602060002090601f016020900481019282601f1061445b57805160ff1916838001178555614489565b82800160010185558215614489579182015b8281111561448857825182559160200191906001019061446d565b5b509050614496919061457b565b5090565b604051806080016040528060608152602001600073ffffffffffffffffffffffffffffffffffffffff16815260200160008152602001600081525090565b60405180610120016040528060608152602001600073ffffffffffffffffffffffffffffffffffffffff168152602001600081526020016000815260200160008152602001600081526020016000815260200160008152602001606081525090565b6040518060a00160405280606081526020016145546143b2565b81526020016145616144d8565b815260200161456e61449a565b8152602001606081525090565b5b8082111561459457600081600090555060010161457c565b5090565b6000813590506145a781615825565b92915050565b6000815190506145bc8161583c565b92915050565b600082601f8301126145d357600080fd5b81356145e66145e1826155c5565b615598565b9150808252602083016020830185838301111561460257600080fd5b61460d838284615791565b50505092915050565b60008135905061462581615853565b92915050565b60006020828403121561463d57600080fd5b600061464b84828501614598565b91505092915050565b60006020828403121561466657600080fd5b6000614674848285016145ad565b91505092915050565b60006020828403121561468f57600080fd5b600082013567ffffffffffffffff8111156146a957600080fd5b6146b5848285016145c2565b91505092915050565b600080604083850312156146d157600080fd5b600083013567ffffffffffffffff8111156146eb57600080fd5b6146f7858286016145c2565b925050602061470885828601614598565b9150509250929050565b6000806040838503121561472557600080fd5b600083013567ffffffffffffffff81111561473f57600080fd5b61474b858286016145c2565b925050602083013567ffffffffffffffff81111561476857600080fd5b614774858286016145c2565b9150509250929050565b6000806040838503121561479157600080fd5b600083013567ffffffffffffffff8111156147ab57600080fd5b6147b7858286016145c2565b92505060206147c885828601614616565b9150509250929050565b6000602082840312156147e457600080fd5b60006147f284828501614616565b91505092915050565b6000614807838361484a565b60208301905092915050565b600061481f8383614ee3565b905092915050565b60006148338383615193565b905092915050565b6148448161575b565b82525050565b61485381615713565b82525050565b61486281615713565b82525050565b600061487382615636565b61487d8185615689565b9350614888836155f1565b8060005b838110156148b95781516148a088826147fb565b97506148ab83615662565b92505060018101905061488c565b5085935050505092915050565b60006148d182615641565b6148db818561569a565b9350836020820285016148ed85615601565b8060005b85811015614929578484038952815161490a8582614813565b94506149158361566f565b925060208a019950506001810190506148f1565b50829750879550505050505092915050565b60006149468261564c565b61495081856156ab565b93508360208202850161496285615611565b8060005b8581101561499e578484038952815161497f8582614827565b945061498a8361567c565b925060208a01995050600181019050614966565b50829750879550505050505092915050565b6149b981615725565b82525050565b60006149ca82615657565b6149d481856156bc565b93506149e48185602086016157a0565b6149ed81615807565b840191505092915050565b6000614a0382615657565b614a0d81856156cd565b9350614a1d8185602086016157a0565b614a2681615807565b840191505092915050565b6000614a3c82615657565b614a4681856156de565b9350614a568185602086016157a0565b80840191505092915050565b600081546001811660008114614a7f5760018114614aa557614ae9565b607f6002830416614a9081876156bc565b955060ff198316865260208601935050614ae9565b60028204614ab381876156bc565b9550614abe85615621565b60005b82811015614ae057815481890152600182019150602081019050614ac1565b80880195505050505b505092915050565b600081546001811660008114614b0e5760018114614b3357614b77565b607f6002830416614b1f81876156de565b955060ff1983168652808601935050614b77565b60028204614b4181876156de565b9550614b4c85615621565b60005b82811015614b6e57815481890152600182019150602081019050614b4f565b82880195505050505b505092915050565b6000614b8c601c836156cd565b91507f74686520726f6c652070726f766964656420697320696e76616c6964000000006000830152602082019050919050565b6000614bcc601c836156cd565b91507f74686520616472657373206973206e6f742072656769737465726564000000006000830152602082019050919050565b6000614c0c6026836156cd565b91507f74686520616464726573732070726f7669646564206973206e6f74206120707260008301527f6f647563657200000000000000000000000000000000000000000000000000006020830152604082019050919050565b6000614c72601c836156cd565b91507f74686520656e74697479206973206e6f7420612070726f6475636572000000006000830152602082019050919050565b6000614cb2601a836156cd565b91507f74686520656e74697479206973206e6f742061207061636b65720000000000006000830152602082019050919050565b6000614cf26025836156cd565b91507f7468652070726f647563657220646f6573206e6f74206861766520616e79207260008301527f65636f72640000000000000000000000000000000000000000000000000000006020830152604082019050919050565b6000614d58601a836156cd565b91507f74686520656e74697479206973206e6f742061206661726d65720000000000006000830152602082019050919050565b600060a0830160008301518482036000860152614da882826149bf565b91505060208301518482036020860152614dc28282615193565b91505060408301518482036040860152614ddc8282614ee3565b91505060608301518482036060860152614df68282614e1d565b91505060808301518482036080860152614e108282614868565b9150508091505092915050565b60006080830160008301518482036000860152614e3a82826149bf565b9150506020830151614e4f602086018261484a565b506040830151614e62604086018261522a565b506060830151614e75606086018261522a565b508091505092915050565b60006080830160008301518482036000860152614e9d82826149bf565b9150506020830151614eb2602086018261484a565b506040830151614ec5604086018261522a565b506060830151614ed8606086018261522a565b508091505092915050565b6000610120830160008301518482036000860152614f0182826149bf565b9150506020830151614f16602086018261484a565b506040830151614f29604086018261522a565b506060830151614f3c606086018261522a565b506080830151614f4f608086018261522a565b5060a0830151614f6260a086018261522a565b5060c0830151614f7560c086018261522a565b5060e0830151614f8860e086018261522a565b50610100830151848203610100860152614fa282826149bf565b9150508091505092915050565b6000610120830160008301518482036000860152614fcd82826149bf565b9150506020830151614fe2602086018261484a565b506040830151614ff5604086018261522a565b506060830151615008606086018261522a565b50608083015161501b608086018261522a565b5060a083015161502e60a086018261522a565b5060c083015161504160c086018261522a565b5060e083015161505460e086018261522a565b5061010083015184820361010086015261506e82826149bf565b9150508091505092915050565b60006101208301600080840185830360008701526150998382614a62565b925050600184015490506150ac816157d3565b6150b9602087018261484a565b50600284015490506150ca816157ed565b6150d7604087018261522a565b50600384015490506150e8816157ed565b6150f5606087018261522a565b5060048401549050615106816157ed565b615113608087018261522a565b5060058401549050615124816157ed565b61513160a087018261522a565b5060068401549050615142816157ed565b61514f60c087018261522a565b5060078401549050615160816157ed565b61516d60e087018261522a565b50600884018583036101008701526151858382614a62565b925050819250505092915050565b600060c0830160008301516151ab600086018261484a565b50602083015184820360208601526151c382826149bf565b915050604083015184820360408601526151dd82826149bf565b91505060608301516151f2606086018261522a565b506080830151848203608086015261520a82826149bf565b91505060a083015161521f60a08601826149b0565b508091505092915050565b61523381615751565b82525050565b61524281615751565b82525050565b60006152548284614a31565b915081905092915050565b600061526b8285614a31565b91506152778284614a31565b91508190509392505050565b600061528f8284614af1565b915081905092915050565b60006020820190506152af6000830184614859565b92915050565b60006060820190506152ca600083018661483b565b6152d76020830185614859565b6152e46040830184615239565b949350505050565b6000604082019050615301600083018561483b565b818103602083015261531381846149f8565b90509392505050565b6000606082019050615331600083018661483b565b818103602083015261534381856149f8565b9050818103604083015261535781846149f8565b9050949350505050565b6000606082019050615376600083018661483b565b818103602083015261538881856149f8565b9050818103604083015261539c8184614e80565b9050949350505050565b60006060820190506153bb600083018661483b565b81810360208301526153cd81856149f8565b90506153dc6040830184615239565b949350505050565b60006040820190506153f9600083018561483b565b818103602083015261540b8184614d8b565b90509392505050565b6000604082019050615429600083018561483b565b818103602083015261543b8184614faf565b90509392505050565b6000604082019050615459600083018561483b565b818103602083015261546b818461507b565b90509392505050565b6000602082019050818103600083015261548e81846148c6565b905092915050565b600060208201905081810360008301526154b0818461493b565b905092915050565b600060208201905081810360008301526154d181614b7f565b9050919050565b600060208201905081810360008301526154f181614bbf565b9050919050565b6000602082019050818103600083015261551181614bff565b9050919050565b6000602082019050818103600083015261553181614c65565b9050919050565b6000602082019050818103600083015261555181614ca5565b9050919050565b6000602082019050818103600083015261557181614ce5565b9050919050565b6000602082019050818103600083015261559181614d4b565b9050919050565b6000604051905081810181811067ffffffffffffffff821117156155bb57600080fd5b8060405250919050565b600067ffffffffffffffff8211156155dc57600080fd5b601f19601f8301169050602081019050919050565b6000819050602082019050919050565b6000819050602082019050919050565b6000819050602082019050919050565b60008190508160005260206000209050919050565b600081519050919050565b600081519050919050565b600081519050919050565b600081519050919050565b6000602082019050919050565b6000602082019050919050565b6000602082019050919050565b600082825260208201905092915050565b600082825260208201905092915050565b600082825260208201905092915050565b600082825260208201905092915050565b600082825260208201905092915050565b600081905092915050565b600073ffffffffffffffffffffffffffffffffffffffff82169050919050565b6000819050919050565b600061571e82615731565b9050919050565b60008115159050919050565b600073ffffffffffffffffffffffffffffffffffffffff82169050919050565b6000819050919050565b60006157668261576d565b9050919050565b60006157788261577f565b9050919050565b600061578a82615731565b9050919050565b82818337600083830152505050565b60005b838110156157be5780820151818401526020810190506157a3565b838111156157cd576000848401525b50505050565b60006157e66157e183615818565b6156e9565b9050919050565b60006158006157fb83615818565b615709565b9050919050565b6000601f19601f8301169050919050565b60008160001c9050919050565b61582e81615713565b811461583957600080fd5b50565b61584581615725565b811461585057600080fd5b50565b61585c81615751565b811461586757600080fd5b5056fea26469706673582212207f1df2e46bcc0087bf13d051e514f543b89b0a447b461f88e8bb39859b9b91b164736f6c634300060c0033",
  "immutableReferences": {},
  "source": "// SPDX-License-Identifier: MIT\r\npragma solidity 0.6.12;\r\n\r\npragma experimental ABIEncoderV2;\r\nimport \"@openzeppelin/contracts/token/ERC20/IERC20.sol\";\r\n\r\n// address details for testing, each will have 100 tokens transfered (100000000000000000000)\r\n// farmer - 0xAb8483F64d9C6d1EcF9b849Ae677dD3315835cb2\r\n// producer - 0x4B20993Bc481177ec7E8f571ceCaE8A9e22C02db\r\n// packer - 0x78731D3Ca6b7E34aC0F824c42a7cC18A495cabaB\r\n// distributor - 0x617F2E2fD72FD9D5503197092aC168c91465E7f2\r\n// retailer - 0x17F6AD8Ef982297579C203069C1DbfFE4348c372\r\n// consumer - 0x5c6B0f7Bf3E7ce046039Bd8FABdfD3f9F5021678\r\n// contract deployer - 0x03C6FcED478cBbC9a4FAB34eF9f40767739D1Ff7\r\n\r\ncontract VineToWine {\r\n    \r\n    //  ************   entity registration block starts ***************************************\r\n    enum role{farmer, producer, packer, distributor, retailer, consumer}\r\n    \r\n    struct entity {\r\n        string entityname;\r\n        uint entityrole;\r\n    }\r\n    \r\n    // below is mapping to hold details for all registered entity in the ecosystem\r\n    mapping(address => entity) addressRoleMapping;\r\n    \r\n    // below holds address for all the entities in an array to manupulate mappings\r\n    address [] public farmer_array;\r\n    address [] public producer_array;\r\n    address [] public packer_array;\r\n    address [] public distributor_array;\r\n    address [] public retailer_array;\r\n    address [] public consumer_array;\r\n    // ************* entity registration block ends  *******************************************\r\n    \r\n    // ************* farmer entity block start *************************************************\r\n    struct vineyard {\r\n        address farmer_ddress;\r\n        string location_id;\r\n        string vine_variety;\r\n        uint picking_timestamp;\r\n        string batch_num;\r\n        bool vine_picked;\r\n    }\r\n    \r\n    mapping(address => vineyard[]) vineyardmap;\r\n    \r\n    // ************* farmer entity block ends  *************************************************\r\n    \r\n    // ************* producer entity block starts **********************************************\r\n    struct producer{\r\n        string batch_num;\r\n        address farm_address;\r\n        uint batch_rcvd_timestamp;\r\n        uint destemmer_timestamp;\r\n        uint crusher_timestamp;\r\n        uint chiller_timestamp;\r\n        uint presser_timestamp;\r\n        uint barrell_timestamp;\r\n        string barrel_batch_number;\r\n    }\r\n    \r\n    mapping(address => producer[]) producermap;\r\n    \r\n    // ************* producer entity block ends  ***********************************************\r\n    \r\n    // ************ packer entity block starts   ***********************************************\r\n    struct packer{\r\n        string barrel_batch_number;\r\n        address producer_address;\r\n        uint received_timestamp;\r\n        uint bottled_timestamp;\r\n    }\r\n    \r\n    mapping(address => packer[]) packermap;\r\n    mapping(string => packer) bottlemap;\r\n    mapping(string => address[]) bottleownermap;\r\n    // ************ packer entity block ends     ***********************************************\r\n\r\n    // ************ history structure for a bottle id starts ***********************************\r\n    struct bottleHistory{\r\n        string bottle_id;\r\n        vineyard vineyard_details;\r\n        producer barrell_details;\r\n        packer packer_details;\r\n        address [] owners;\r\n    }\r\n    // ************ history structure for a bottle id ends **************************************\r\n    \r\n    \r\n    //*********** this holds all the events ***************************\r\n    event entityRegistered(address entity, string name, uint roleentity);\r\n    event vineyardRegistered(address farmer, string location, string vinevariety);\r\n    event vineyardPicked(address farmer, string location, string batch_num);\r\n    event vineVarietyChanged(address farmer, string location, string vinevariety);\r\n    event vineBatchReceived(address producer_address, producer p);\r\n    event produreDetails(producer []);\r\n    event barrellDetails(address producer_address, string barrell_batch_number);\r\n    event barrellReceived(address packeraddress, string barrell_batch_number);\r\n    event bottledEvent(address packeraddress, string bottleId, packer packedbottle);\r\n    event bottle_history(address user, bottleHistory bottle_history_details);\r\n\r\n    //*******************************************************************\r\n    \r\n    // delcare IRC20 token object to store address of token created for this whole eco system.\r\n    \r\n    IERC20 token;\r\n    address contract_owner;\r\n    address ICO_owner;\r\n    uint256 staking_amount;\r\n    \r\n    constructor(address _token_address, uint256 _staking_amount, address _ICO_owner) public {\r\n        token = IERC20(_token_address);\r\n        contract_owner = msg.sender;\r\n        staking_amount = _staking_amount;\r\n        ICO_owner = _ICO_owner;\r\n    }\r\n    \r\n    // end of block to store token address while creating contract\r\n    \r\n    //******* modifier block starts ****************************************************\r\n    modifier checkFarmer() {\r\n       require(addressRoleMapping[msg.sender].entityrole == uint(role.farmer), \"the entity is not a farmer\");\r\n       _;\r\n    }\r\n    \r\n    modifier checkProducer() {\r\n        require(addressRoleMapping[msg.sender].entityrole == uint(role.producer), \"the entity is not a producer\");\r\n        _;\r\n    }\r\n    \r\n    modifier checkPacker() {\r\n        require(addressRoleMapping[msg.sender].entityrole == uint(role.packer), \"the entity is not a packer\");\r\n        _;\r\n    }\r\n    \r\n    //******* modifier block ends *******************************************************\r\n    \r\n    // below function registers an entity in the ecosystem as one of the roles\r\n    function registerEntity(string memory _name, uint _role) public payable {\r\n        \r\n        \r\n        require(uint(role.farmer) == _role || uint(role.producer) == _role || uint(role.packer) == _role || \r\n                uint(role.consumer) == _role || uint(role.distributor) == _role || uint(role.retailer) == _role, \r\n                \"the role provided is invalid\");\r\n        \r\n        // transfer 50 tokens to contract address while registering any entity\r\n        // pass the staked amount to contract address\r\n        if (uint(role.farmer) == _role || uint(role.producer) == _role || uint(role.packer) == _role || \r\n                uint(role.distributor) == _role || uint(role.retailer) == _role) {\r\n                    token.transferFrom(msg.sender, ICO_owner, staking_amount * 10 ** 18);\r\n                }\r\n        \r\n        entity memory e = entity(_name, _role);\r\n        \r\n        addressRoleMapping[msg.sender] = e;\r\n        \r\n        if(uint(role.farmer) == _role){\r\n           farmer_array.push(msg.sender);\r\n        }\r\n        if(uint(role.producer) == _role){\r\n           producer_array.push(msg.sender);\r\n        }\r\n        if(uint(role.packer) == _role){\r\n           packer_array.push(msg.sender);\r\n        }\r\n        if(uint(role.distributor) == _role){\r\n           distributor_array.push(msg.sender);\r\n        }\r\n        if(uint(role.retailer) == _role){\r\n           retailer_array.push(msg.sender);\r\n        }\r\n        if(uint(role.consumer) == _role){\r\n           consumer_array.push(msg.sender);\r\n        }\r\n        \r\n        emit entityRegistered(msg.sender, _name, _role);\r\n    }\r\n    \r\n    //below function is to register the vineyard to a farmer\r\n    function registerVineryard(string memory _locationid, string memory _vinevariety) public checkFarmer(){\r\n        \r\n        vineyard memory v = vineyard(msg.sender, _locationid, _vinevariety, 0, \" \", false);\r\n        vineyardmap[msg.sender].push(v);\r\n        emit vineyardRegistered(msg.sender, _locationid, _vinevariety);\r\n        \r\n    }\r\n    \r\n    //below function is to update the status of vine variety is changed\r\n    function updateVineVariety(string memory _locationid, string memory _vinevariety) public checkFarmer() {\r\n        \r\n        uint curr_timestamp = now;\r\n        \r\n        for (uint i = 0; i < vineyardmap[msg.sender].length; i++){\r\n            \r\n            if(keccak256(abi.encodePacked(vineyardmap[msg.sender][i].location_id)) \r\n              == keccak256(abi.encodePacked(_locationid))){\r\n                  \r\n                  vineyardmap[msg.sender][i].vine_variety =  _vinevariety;\r\n                  vineyardmap[msg.sender][i].picking_timestamp = curr_timestamp;\r\n                  vineyardmap[msg.sender][i].vine_picked = false;\r\n                  vineyardmap[msg.sender][i].batch_num = \"\";\r\n                  break;\r\n              }\r\n            \r\n        }\r\n        \r\n         emit vineVarietyChanged(msg.sender, _locationid, _vinevariety);   \r\n        \r\n    }\r\n\r\n    //below function is to update the status of vineyard when the crop is picked\r\n    function updateVineyardPicking(string memory _locationid) public checkFarmer(){\r\n        \r\n        uint curr_timestamp = now;\r\n        \r\n        for (uint i = 0; i < vineyardmap[msg.sender].length; i++){\r\n            \r\n            if(keccak256(abi.encodePacked(vineyardmap[msg.sender][i].location_id)) \r\n              == keccak256(abi.encodePacked(_locationid))){\r\n                  \r\n                  vineyardmap[msg.sender][i].picking_timestamp = curr_timestamp;\r\n                  vineyardmap[msg.sender][i].vine_picked = true;\r\n                  vineyardmap[msg.sender][i].batch_num = string(abi.encodePacked(_locationid, uintToStr(curr_timestamp)));\r\n            \r\n              }\r\n            \r\n        }\r\n        \r\n         emit vineyardPicked(msg.sender, _locationid, string(abi.encodePacked(_locationid, uintToStr(curr_timestamp))));   \r\n        \r\n    }\r\n          \r\n    //below function is triggeres by manufacturer to receive the vine batch\r\n    function receiveVineBatch(string memory _batch_num, address _farm_address) public checkProducer() {\r\n        \r\n        producer memory p = producer(_batch_num,_farm_address,now,0,0,0,0,0,\"\");\r\n        producermap[msg.sender].push(p);\r\n        emit vineBatchReceived(msg.sender, p);\r\n        \r\n    }\r\n    \r\n    // below function updates the destemming timestamp\r\n    function updateDestemming(string memory _batch_num) public checkProducer() {\r\n        \r\n        for(uint i = 0; i < producermap[msg.sender].length; i++){\r\n            \r\n            if ( keccak256(abi.encodePacked(producermap[msg.sender][i].batch_num)) ==\r\n                keccak256(abi.encodePacked(_batch_num))){\r\n                  producermap[msg.sender][i].destemmer_timestamp = now;  \r\n                  emit vineBatchReceived(msg.sender, producermap[msg.sender][i]);\r\n                }\r\n        }\r\n    }\r\n    \r\n    // below function updates the crushing timestamp\r\n    function updateCrushing(string memory _batch_num) public checkProducer() {\r\n        \r\n        for(uint i = 0; i < producermap[msg.sender].length; i++){\r\n            \r\n            if ( keccak256(abi.encodePacked(producermap[msg.sender][i].batch_num)) ==\r\n                keccak256(abi.encodePacked(_batch_num))){\r\n                  producermap[msg.sender][i].crusher_timestamp = now;  \r\n                  emit vineBatchReceived(msg.sender, producermap[msg.sender][i]);\r\n                }\r\n        }\r\n    }\r\n    \r\n    // below function updates the crushing timestamp\r\n    function updateChilling(string memory _batch_num) public checkProducer() {\r\n        \r\n        for(uint i = 0; i < producermap[msg.sender].length; i++){\r\n            \r\n            if ( keccak256(abi.encodePacked(producermap[msg.sender][i].batch_num)) ==\r\n                keccak256(abi.encodePacked(_batch_num))){\r\n                  producermap[msg.sender][i].chiller_timestamp = now;  \r\n                  emit vineBatchReceived(msg.sender, producermap[msg.sender][i]);\r\n                }\r\n        }\r\n    }\r\n    \r\n    // below function updates the pressing timestamp\r\n    function updatePressing(string memory _batch_num) public checkProducer() {\r\n        \r\n        for(uint i = 0; i < producermap[msg.sender].length; i++){\r\n            \r\n            if ( keccak256(abi.encodePacked(producermap[msg.sender][i].batch_num)) ==\r\n                keccak256(abi.encodePacked(_batch_num))){\r\n                  producermap[msg.sender][i].presser_timestamp = now;  \r\n                  emit vineBatchReceived(msg.sender, producermap[msg.sender][i]);\r\n                }\r\n        }\r\n    }\r\n    \r\n    // below function updates the barell timestamp\r\n    function updateBarrell(string memory _batch_num) public checkProducer() {\r\n        \r\n        string memory temp_barell_batch_number = \"\";\r\n        for(uint i = 0; i < producermap[msg.sender].length; i++){\r\n            \r\n            if ( keccak256(abi.encodePacked(producermap[msg.sender][i].batch_num)) ==\r\n                keccak256(abi.encodePacked(_batch_num))){\r\n                  uint temptimestamp = now;\r\n                  producermap[msg.sender][i].barrell_timestamp = temptimestamp;  \r\n                  producermap[msg.sender][i].barrel_batch_number = \r\n                  string(abi.encodePacked(_batch_num, uintToStr(temptimestamp)));\r\n                  temp_barell_batch_number = producermap[msg.sender][i].barrel_batch_number;\r\n                }\r\n        }\r\n        \r\n        emit barrellDetails(msg.sender, temp_barell_batch_number);\r\n    }\r\n    \r\n    // below function updates the timestamp when packer receives the barrel \r\n    function receiveBarrell(string memory _barrel_batch_number, address _producer_address) public checkPacker() {\r\n        \r\n        packer memory p = packer(_barrel_batch_number, _producer_address, now, 0);\r\n        packermap[msg.sender].push(p);\r\n        \r\n        emit barrellReceived(msg.sender, _barrel_batch_number);\r\n    }\r\n    \r\n    // this function updates the bottle id when the bottle is filled from the barrell. This will update the \r\n    // bottle id along with the barell id used for bottling.\r\n    function updateBottleId(string memory _bottle_id, string memory _barrel_batch_number) public checkPacker() {\r\n        \r\n        packer memory p = packer(_barrel_batch_number, msg.sender ,0,0);\r\n        for(uint i = 0; i < packermap[msg.sender].length; i++) {\r\n           \r\n           if (keccak256(abi.encodePacked(packermap[msg.sender][i].barrel_batch_number)) ==\r\n              keccak256(abi.encodePacked(_barrel_batch_number))) {\r\n                  \r\n                  uint temptimestamp = now;\r\n                  p.producer_address = packermap[msg.sender][i].producer_address;\r\n                  p.received_timestamp = packermap[msg.sender][i].received_timestamp;\r\n                  p.bottled_timestamp = temptimestamp;\r\n                  bottlemap[_bottle_id] = p;\r\n                  packermap[msg.sender][i].bottled_timestamp = temptimestamp;\r\n              }\r\n        }\r\n        \r\n        emit bottledEvent(msg.sender, _bottle_id, p);\r\n    }\r\n    \r\n    // this function stores any change in the ownership of the bottle once the packer handles it to distributor\r\n    function changeOwner(string memory _bottle_id) public {\r\n        require(addressRoleMapping[msg.sender].entityrole == uint(role.farmer) ||\r\n                addressRoleMapping[msg.sender].entityrole == uint(role.producer) ||\r\n                addressRoleMapping[msg.sender].entityrole == uint(role.packer) ||\r\n                addressRoleMapping[msg.sender].entityrole == uint(role.distributor) ||\r\n                addressRoleMapping[msg.sender].entityrole == uint(role.retailer) ||\r\n                addressRoleMapping[msg.sender].entityrole == uint(role.consumer), \"the adress is not registered\");\r\n        bottleownermap[_bottle_id].push(msg.sender);\r\n    }\r\n    \r\n    // this function gives history of the bottle_id\r\n    function getBottleHistory(string memory _bottle_id) public{\r\n        \r\n        //create a temporary struct for packer data\r\n        packer memory p = bottlemap[_bottle_id];\r\n        string memory barrel_number = p.barrel_batch_number;\r\n        address temp_addr = p.producer_address;\r\n        \r\n        // create a temporary struct for producer data\r\n        producer memory prod = producer(\"\",temp_addr, 0,0,0,0,0,0,\"\");\r\n        \r\n        for (uint i = 0; i < producermap[temp_addr].length; i++) {\r\n            if (keccak256(abi.encodePacked(producermap[temp_addr][i].barrel_batch_number)) == \r\n                keccak256(abi.encodePacked(barrel_number))){\r\n                    prod = producermap[temp_addr][i];\r\n                }\r\n        }\r\n        \r\n        \r\n        address farm_temp = prod.farm_address;\r\n        string memory batch_num_temp = prod.batch_num;\r\n        \r\n        // create a temporary struct for vineyard data\r\n        vineyard memory v = vineyard(farm_temp, \"\", \"\", 0, \"\", false);\r\n        for (uint i = 0; i < vineyardmap[farm_temp].length; i++) {\r\n            if (keccak256(abi.encodePacked(vineyardmap[farm_temp][i].batch_num)) == \r\n                keccak256(abi.encodePacked(batch_num_temp))){\r\n                    v = vineyardmap[farm_temp][i];\r\n                }\r\n            \r\n        }\r\n        \r\n        \r\n        bottleHistory memory b = bottleHistory(_bottle_id, v, prod, p, bottleownermap[_bottle_id]);\r\n        \r\n        \r\n        emit bottle_history(msg.sender, b);\r\n    }\r\n    \r\n    \r\n    //*******************************************************************************************\r\n    // create an ERC721 token to associate with bottle_id\r\n    // ******************************************************************************************\r\n    \r\n    // *****************  Non blockchain related processing starts ************************************\r\n    // below is a function to convert uint to string to genrate the batch number\r\n    function uintToStr(uint _i) internal pure returns (string memory _uintAsString) {\r\n        uint number = _i;\r\n        if (number == 0) {\r\n            return \"0\";\r\n        }\r\n        uint j = number;\r\n        uint len;\r\n        while (j != 0) {\r\n            len++;\r\n            j /= 10;\r\n        }\r\n        bytes memory bstr = new bytes(len);\r\n        uint k = len - 1;\r\n        while (number != 0) {\r\n            bstr[k--] = byte(uint8(48 + number % 10));\r\n            number /= 10;\r\n        }\r\n        return string(bstr);\r\n    }\r\n    \r\n    // **************** non blockchain related function ends. *****************************************\r\n    \r\n    \r\n    \r\n    // ************************************************************************************************\r\n    // ** all functions below this are for information and testing only.\r\n    // ************************************************************************************************\r\n    \r\n    // this returns all the vineyard details for a farmer address\r\n    function getVineyardDetails(address _farmer) view public returns(vineyard [] memory){\r\n         vineyard [] memory vines = new vineyard[] (vineyardmap[_farmer].length);\r\n         for (uint i = 0; i < vineyardmap[_farmer].length; i++) {\r\n             vines[i] = vineyardmap[_farmer][i];\r\n         }\r\n\r\n        return vines; \r\n        //emit vineyardDetails(vines);\r\n    }\r\n    \r\n    // this function returns history of all produce for a given producer\r\n    function getProducerDetails(address _producer) public returns(producer [] memory) {\r\n     \r\n     require(addressRoleMapping[_producer].entityrole == uint(role.producer), \"the address provided is not a producer\");\r\n     require(producermap[_producer].length > 0, \"the producer does not have any record\");\r\n     \r\n     producer [] memory p = new producer[] (producermap[_producer].length);\r\n     for(uint i = 0; i < producermap[_producer].length; i++) { \r\n         p[i] = producermap[_producer][i]; \r\n     }\r\n       \r\n     emit produreDetails(p);\r\n    }\r\n    \r\n    \r\n}",
  "sourcePath": "/Users/amitpandey/Desktop/final/contracts/VinetoWine.sol",
  "compiler": {
    "name": "solc",
    "version": "0.6.12+commit.27d51765.Emscripten.clang"
  },
  "schemaVersion": "3.3.3",
  "updatedAt": "2021-04-29T12:31:00.726Z",
  "networkType": "ethereum",
  "devdoc": {
    "kind": "dev",
    "methods": {},
    "version": 1
  },
  "userdoc": {
    "kind": "user",
    "methods": {},
    "version": 1
  }
}